:1000000053ED00F059ED00F071ED00F07BED00F0E4
:100010000401C3978CED00F08CED00F0C3878CEDEC
:1000200000F08CED00F008EF00F0050E056E000EFC
:10003000026E036E3BEF00F00401000EFB6F000E3A
:10004000FA6F044448EC00F003B2F7EFFFF002B29D
:10005000F7EFFFF0C06E076E8CEC00F0062E33EF6A
:1000600000F036EF00F0042A1CEF00F0052E3BEF05
:1000700000F0F7EFFFF0C3870A0E066E000E046E65
:100080001CEF00F0B4900750C06F0268FFEFFFF064
:10009000F926810C420C240C180C000C180C240CB2
:1000A000420C810C000C0001600EAD6F020EB16FAE
:1000B00012000401D36BC387286B286BCB97CB85C9
:1000C00029850401D06BC06B106BC86B0401CE6B2B
:1000D000006BC68701870401CF890899C789098900
:1000E00012000201030E3E6F02010C0E3F6F02016F
:1000F0002A0E406F1200D68A0301639168816C81D9
:10010000D690AF909F80D692B490A480D694B890A9
:10011000A880D68ED68C1200FA0E016EF90E006EF3
:100120000000002E90EF00F0012E8EEF00F0120084
:020000040001F9
:10FFDE0000EF00F0AFA0F7EFFFF0AF9015EF00F0DD
:10FFEE001000B4B042EF00F0B8B0B890C06B036828
:02FFFE001000F1
:020000040030CA
:10000000EC0D27C79FFFFFFFFFFFFFFFFFFFFFFF75
:10001000FFFFFFFFFFFFFFFFFFFFFFFFFFFFFFFFF0
:03002000FFFFFFE0
:00000001FF
