:10000000DDED00F0E4ED00F0CEB604EF00F0C293B9
:10001000C281C09FC081F4ECFFF0CEB615EF00F0B6
:10002000F4ECFFF0CEB610EF00F0C091C083F4EC1A
:10003000FFF0CEB621EF00F0F4ECFFF0CEB61CEFEF
:1000400000F0C093C085F4ECFFF0CEB62DEF00F0C9
:10005000F4ECFFF0CEB628EF00F0C095C087F4ECCA
:10006000FFF0CEB639EF00F0F4ECFFF0CEB634EF8F
:1000700000F0C097C089F4ECFFF0CEB645EF00F079
:10008000F4ECFFF0CEB640EF00F0C099C08BF4EC7A
:10009000FFF0CEB651EF00F0F4ECFFF0CEB64CEF2F
:1000A00000F0C09BC08DF4ECFFF0CEB65DEF00F029
:1000B000F4ECFFF0CEB658EF00F0C09DC08FF4EC2A
:1000C000FFF0CEB669EF00F0F4ECFFF0CEB664EFCF
:1000D00000F0C291C283C09FC081F4ECFFF0CEB6A5
:1000E00077EF00F0F4ECFFF0CEB672EF00F0F4EC36
:1000F000FFF0C091C083F4ECFFF0CEB685EF00F0C6
:10010000F4ECFFF0CEB680EF00F0F4ECFFF0C0931B
:10011000C085F4ECFFF0CEB693EF00F0F4ECFFF006
:10012000CEB68EEF00F0F4ECFFF0C095C087F4EC93
:10013000FFF0CEB6A1EF00F0F4ECFFF0CEB69CEFEE
:1001400000F0F4ECFFF0C097C089F4ECFFF0CEB6FD
:10015000AFEF00F0F4ECFFF0CEB6AAEF00F0F4EC55
:10016000FFF0C099C08BF4ECFFF0CEB6F4ECFFF0DA
:10017000BFEF00F0F4ECFFF0CEB6BAEF00F0F4EC15
:10018000FFF0C09BC08DF4ECFFF0CEB6CDEF00F0D9
:10019000F4ECFFF0CEB6C8EF00F0F4ECFFF0C09D39
:1001A000C08FF4ECFFF0CEB607EF00F0F4ECFFF0F8
:1001B000CEB6D6EF00F007EF00F00001600EAD6F95
:1001C0000001020EB16F12000401D269C26B206BF4
:1001D000CA6B0401D069C06B106BC86B0401CE6B95
:0801E000006BC68701871200C5
:020000040001F9
:10FFCC0000EF00F0C40E016EF90E006E0000002E62
:10FFDC00ECEFFFF0012EEAEFFFF01200FA0E016ECB
:10FFEC00F90E006E0000002EECEFFFF0012EEAEF90
:04FFFC00FFF0120000
:020000040030CA
:10000000EC0D27C79FFFFFFFFFFFFFFFFFFFFFFF75
:10001000FFFFFFFFFFFFFFFFFFFFFFFFFFFFFFFFF0
:03002000FFFFFFE0
:00000001FF
